:100000000C9478000C9495000C9495000C94950039
:100010000C9495000C94E4000C9495000C949500BD
:100020000C9495000C9495000C9495000C949500FC
:100030000C9495000C9495000C946A010C94950016
:100040000C9495000C9495000C9497000C949500DA
:100050000C9495000C9495000C9495000C949500CC
:100060000C9495000C9495009B019E01A101B40194
:10007000B401A101B401B401A701B401BA01BF01E7
:10008000C401C401C401C401C401C401C401C40148
:10009000CA01CF01D401D701DA01DD01E001E3019A
:1000A000F601F601E301F601F601E901E301FC01C5
:1000B00001020802080208020802080208020802F7
:1000C00008020C0212022402290229022902290232
:1000D00029022902290229022D023302650268023F
:1000E0004A03AA0357046004D104DA0463056B05CC
:1000F00011241FBECFEFD8E0DEBFCDBF11E0A0E0DE
:10010000B1E0E4EAF1E102C005900D92A431B1073B
:10011000D9F721E0A4E1B1E001C01D92A239B207F4
:10012000E1F70E9434070C94D0080C9400001F9251
:100130000F920FB60F9211242F933F934F935F931B
:100140006F937F938F939F93AF93BF93EF93FF939F
:100150008091C6008093410180914101882319F16B
:10016000E091170181E08E0F80931701F0E08091FC
:100170004101E95AFE4F8083809117018F7080936F
:100180001701809141018D3071F44091170150E0C9
:1001900067E571E084E491E00E94930810921701F2
:1001A00081E080939101FF91EF91BF91AF919F9179
:1001B0008F917F916F915F914F913F912F910F9010
:1001C0000FBE0F901F9018951F920F920FB60F92AF
:1001D00011242F938F939F934E9B35C04D9B0DC041
:1001E0008091540185FD09C080913C0190913D01B1
:1001F000019690933D0180933C018091540185FFCD
:100200000BC04D9909C080913C0190913D0101972F
:1002100090933D0180933C0180913C0190913D0180
:100220008031974224F010923D0110923C01809160
:100230003C0190913D01992334F48FE097E2909333
:100240003D0180933C0189B1809354019F918F912E
:100250002F910F900FBE0F901F9018955F9A289ABC
:10026000299A2A9A80FF02C0459A01C0459881FFC9
:1002700002C0449A01C0449882FF02C0429A01C061
:10028000429883FF02C02C9A01C02C9884FF02C0C0
:100290002D9A01C02D9885FF02C0439A01C0439852
:1002A00086FF02C0419A01C04198882314F4409A05
:1002B00001C04098613041F028F0623039F063307D
:1002C00039F008955F980895289808952998089519
:1002D0002A9808951F920F920FB60F9211242F9310
:1002E0003F934F935F936F937F938F939F93AF93BE
:1002F000BF93EF93FF9380911A01823009F42EC1CE
:1003000030F4882359F0813009F41DC153C18A307B
:1003100009F42EC18B3009F43DC14CC1E0911B01A1
:100320008E2F90E08C33910508F044C1FC01EC5C09
:10033000FF4F0C9479085B98539A3CC15C98549A8F
:1003400039C15B9A539881E080931A0133C180913F
:100350002401813019F45B9A539802C05B98539A38
:1003600081E080931A0126C15B98539A81E08093C3
:100370001A0120C15B9A53985C9A54981BC15B98F0
:10038000539A5C98549A16C15B98539A81E0809373
:100390001A0110C15B9A53985C9A54980BC15B98F0
:1003A000539A5C98549A06C15B98539A03C15C9A1D
:1003B000549800C15B9A5398FDC05B98539AFAC059
:1003C0005C98549AF7C05B9A539881E080931A0125
:1003D000F1C080912401813019F45B9A539802C0D6
:1003E0005B98539A81E080931A01E4C05B98539A1A
:1003F00081E080931A01DEC05B9A53985C9A54980E
:10040000D9C0109226015B98539A5C98549AD2C036
:100410008AE080931A01CEC05B98539A81E0809362
:100420001A01C8C08091260190E090932301809327
:1004300022018091220190912301982F8827909387
:10044000230180932201B6C0109226015B9A539833
:10045000B1C08AE080931A01ADC05B98539A81E0E5
:1004600080931A01A7C020912601809122019091CA
:100470002301820F911D909323018093220180918B
:10048000220190912301959587959595879595954E
:1004900087959595879590932301809322012091CC
:1004A0002201309123018091200190912101820F3E
:1004B000931F9093210180932001809125018F5FEC
:1004C000809325015C9A549875C05B9A539872C0CA
:1004D000809125018A3009F06DC08091240181301E
:1004E000B1F4809120019091210195958795959582
:1004F0008795959587959595879590931D01809300
:100500001C0181E0809319011092240115C0809193
:1005100020019091210195958795959587959595C1
:1005200087959595879590931F0180931E0181E093
:1005300080931801809324011092210110922001D0
:100540001092250137C05C9A549880911B0181500C
:1005500080931B0182E080931A012CC05C98549A0E
:1005600080911B01815080931B0110921A0122C0BF
:1005700080912601880F809326015B9A53985C9A9C
:10058000549880911B01815080931B018BE08093D4
:100590001A0110C04B9B05C0809126018160809399
:1005A00026015C98549A80911B01815080931B0115
:1005B00010921A0180911B018C3331F080911B0144
:1005C0008F5F80931B0102C010921B0180916B0111
:1005D00090916C01019690936C0180936B018091D6
:1005E0002E018F5F80932E0180912E01823099F031
:1005F00018F4813031F02EC08330B9F08430F9F036
:1006000029C0E0912D01F0E0E050FF4F60E08081D3
:100610000E942E011FC0E0912C01F0E0E050FF4F3E
:1006200061E080810E942E0115C0E0912B01F0E075
:10063000E050FF4F62E080810E942E010BC0E091EC
:100640002A01F0E0E050FF4F63E080810E942E011C
:1006500010922E01FF91EF91BF91AF919F918F91D9
:100660007F916F915F914F913F912F910F900FBEAE
:100670000F901F901895CF93DF93E09131018E2F4B
:1006800090E08830910508F05CC2FC01E059FF4F12
:100690000C9479081B9935C0C0913201D091330177
:1006A000EAE0F0E0CE01BF010E946508482F809388
:1006B0003701CB01BF010E946508282F80933601C6
:1006C000CE0164E670E00E946508CB01BF010E9484
:1006D0006508382F80933501CE0168EE73E00E94E3
:1006E0006508CB01BF010E946508809334014093E7
:1006F0002D01265F20932C0130932B0180932A013A
:1007000011C080913B0180932D0180913A01865F59
:1007100080932C018091390180932B0180913801C5
:1007200080932A0120913C0130913D0180912F015D
:10073000909130012817390709F403C210923D0146
:1007400010923C0110926C0110926B0181E0809339
:100750003101F7C180913C0190913D012AE030E0E8
:10076000B9010E94650880932D0180913C01909110
:100770003D01B9010E946508CB01B9010E946508DD
:1007800080932C0180913C0190913D0164E670E0E2
:100790000E946508CB01B9010E94650880932B0176
:1007A00080913C0190913D0168EE73E00E946508E4
:1007B000CB01B9010E94650880932A01809128012C
:1007C000882309F44AC080913C0190913D018197B2
:1007D00081F482E080933101809132019091330164
:1007E00090933D0180933C0110926C0110926B013B
:1007F0002CC080913C0190913D018C9779F484E06C
:100800008093310180913E0190E090933D0180936F
:100810003C0110926C0110926B0117C080913C0159
:1008200090913D01469779F486E080933101809163
:100830003E0190E090933D0180933C0110926C0149
:1008400010926B0102C01092310180913C01909195
:100850003D019093300180932F0180916B01909125
:100860006C0181349C4950F01092310180913C011F
:1008700090913D019093300180932F0120913C0194
:1008800030913D0180912F01909130012817390757
:1008900009F457C110926C0110926B0180913C01D8
:1008A00090913D019093300180932F014AC1809136
:1008B0002901882309F445C183E08093310141C1B6
:1008C00080913C0190913D012AE030E0B9010E9405
:1008D000650880932D0180913C0190913D01B90103
:1008E0000E946508CB01B9010E946508865F80936C
:1008F0002C0180913C0190913D0164E670E00E94E2
:100900006508CB01B9010E94650880932B01809195
:100910003C0190913D0168EE73E00E946508CB01B7
:10092000B9010E94650880932A01809128018823DB
:1009300071F01092310160913C0170913D01709312
:1009400033016093320180E090E00E94BA08809108
:100950006B0190916C0181349C4950F010923101EF
:1009600080913C0190913D019093300180932F0143
:1009700020913C0130913D0180912F0190913001F7
:100980002817390709F4DDC010926C0110926B0131
:1009900080913C0190913D019093300180932F0113
:1009A000D0C080912901882309F4CBC085E08093D1
:1009B0003101C7C080913C0190913D01992324F4FD
:1009C00010923D0110923C0180913C0190913D01BB
:1009D0008F3F910529F024F010923D0110923C01C7
:1009E00080913C0190913D012AE030E0B9010E94E4
:1009F000650880932D0180913C0190913D01B901E2
:100A00000E946508CB01B9010E946508865F80934A
:100A10002C0180913C0190913D0164E670E00E94C0
:100A20006508CB01B9010E94650880932B01809174
:100A30003C0190913D0168EE73E00E946508CB0196
:100A4000B9010E94650880932A01809128018823BA
:100A500081F01092310180913C0190913D01809391
:100A60003E0160913C0170913D0182E090E00E9466
:100A7000BA0880916B0190916C0181349C4950F0CF
:100A80001092310180913C0190913D019093300191
:100A900080932F0120913C0130913D0180912F01E5
:100AA000909130012817390709F44BC010926C015E
:100AB00010926B0180913C0190913D019093300127
:100AC00080932F013EC0809129018823D1F187E0D6
:100AD0008093310136C0E0913F01F09140012AE05E
:100AE00030E0CF01B9010E94650880932D01CB0150
:100AF000B9010E946508865F80932C01CF0164E6EE
:100B000070E00E946508CB01B9010E9465088093DE
:100B10002B01CF0168EE73E00E946508CB01B9019B
:100B20000E94650880932A0180912801811107C0E5
:100B300080916B0190916C0181349C4910F010926E
:100B40003101DF91CF91089590911601292F30E066
:100B5000B9016F5F7F4F6F7177274091150150E0AA
:100B60006417750741F0F901E359FE4F80839F5FD9
:100B70009F71909316010895CF93DF931092C50053
:100B800089E18093C400A0ECB0E08C918D7F8C93C0
:100B900086E08093C200E1ECF0E080818860808391
:100BA0008081806180838081806880838C9185FFD3
:100BB00050C19091150180911601981799F05A9A99
:100BC000E091150181E08E0F80931501F0E0E3596B
:100BD000FE4F80818093C600809115018F718093B4
:100BE00015010AC08091C00086FF06C05A98E0EC4B
:100BF000F0E080818064808380919101882309F4F2
:100C000028C180914401803479F5809145018A376B
:100C100059F5809146018D3039F1809147018D3031
:100C200019F5C4E4D1E06A8182E090E00E94A8084E
:100C30008A8180933E018AE00E94A4058DE00E9493
:100C4000A4058DE40E94A40585E60E94A4058DE319
:100C50000E94A40580913E010E94A4058AE00E94A2
:100C6000A4058DE00E94A40580914401803409F020
:100C700042C09091450180913E0198133CC0809103
:100C80004601823521F0809146018237A1F580919D
:100C90004701803381F580911401805D0E94A40595
:100CA00080913801805D0E94A40580913901805DAA
:100CB0000E94A40580913A01805D0E94A405809164
:100CC0003B01805D0E94A40580913401805D0E94FB
:100CD000A40580913501805D0E94A40580913601B4
:100CE000805D0E94A40580913701805D0E94A4056B
:100CF0008DE00E94A40580914401803449F59091D3
:100D0000450180913E01981323C0809146018235B0
:100D100021F0809146018237D9F4809147018133D7
:100D2000B9F480913401805D0E94A4058091350161
:100D3000805D0E94A40580913601805D0E94A4051B
:100D400080913701805D0E94A4058DE00E94A4057A
:100D500080914401803409F07AC0909145018091DE
:100D60003E01981374C080914601873529F0809127
:100D70004601873709F06BC080914701813309F044
:100D800066C0809148018D3009F461C080914901AD
:100D90008D3009F45CC080914A018D3009F457C050
:100DA00080914B018D3009F452C080914C018D30FF
:100DB00009F04DC0E4E4F1E0848180538093340174
:100DC00085818053809335018681805380933601DD
:100DD0008781805380933701648145812681878193
:100DE00070E060537109A8EEB3E06A9FF0016B9F59
:100DF000F00D7A9FF00D112450E04053510994E614
:100E0000949FB001959F700D11246E0F7F1F30E0ED
:100E1000205331099AE0929FA001939F500D112415
:100E2000640F751F90E0C097680F791F70933301AE
:100E30006093320180E090E00E94BA088FE40E9443
:100E4000A4058BE40E94A4058DE00E94A4051092E5
:100E50009101DF91CF9108958BB1877E8BB95C9A18
:100E600054985B9A539808952E98269A279A3D9AFB
:100E70003C9A3A9A249A259A3B9A399A389A579AE0
:100E8000209A219A229A569855985E9A5D9A2398AC
:100E90002B9AE8E6F0E0808184608083EDE6F0E064
:100EA0008081806280830E942C0784B5826084BD2B
:100EB00085B58E7F85BD85B5826085BD85B58B7F07
:100EC00085BD80EF87BDEEE6F0E0808182608083A3
:100ED0005A98529A1092C50089E18093C400E0ECC0
:100EE000F0E080818D7F808386E08093C200E1EC1A
:100EF000F0E0808188608083808180618083808150
:100F00008068808382E090E00E94A20880933E0186
:100F100080E090E00E94A208909333018093320118
:100F2000883E934030F082E890E0909333018093C4
:100F30003201E0913201F09133012AE030E0CF013B
:100F4000B9010E94650880933701CB01B9010E9465
:100F5000650880933601CF0164E670E00E94650861
:100F6000CB01B9010E94650880933501CF0168EE7D
:100F700073E00E946508CB01B9010E946508809367
:100F800034017894E12CF12CC0E0D0E00AE010E0CC
:100F90000F2EF4E6AF2EB12CF02D0F2EF8EECF2E43
:100FA000F3E0DF2EF02D992493940E94BC058091EC
:100FB0001801882331F0C0911E01D0911F011092B9
:100FC000180180911901882351F0E0901C01F090E4
:100FD0001D0110921901F0924001E0923F01CE01F3
:100FE000B8010E94650880933B01CB01B8010E94C3
:100FF000650880933A01CE01B5010E946508CB01D6
:10100000B8010E94650880933901CE01B6010E94A3
:101010006508CB01B8010E94650880933801CE01B4
:10102000039620913201309133018217930784F4A3
:101030002E9A909214012DE2E21621E0F20644F07D
:101040002091320130913301821793070CF42F9ACB
:1010500080913201909133018C179D0784F52E9871
:101060001092140182E2E81681E0F8063CF08091CB
:101070003201909133018C179D070CF42F981B9926
:1010800007C080912701811103C09092280102C0FE
:10109000109228011B9B07C080912701813019F411
:1010A0009092290102C0109229011B9903C09092CD
:1010B000270102C0109227010E943B0376CF22E253
:1010C000E21621E0F206D4F2DACF97FB072E16F4EF
:1010D000009407D077FD09D00E947F0807FC05D057
:1010E0003EF4909581959F4F0895709561957F4F3F
:1010F0000895EE0FFF1F0590F491E02D0994AA1BAF
:10110000BB1B51E107C0AA1FBB1FA617B70710F0F2
:10111000A61BB70B881F991F5A95A9F78095909524
:10112000BC01CD010895FB01DC014150504048F065
:1011300001900D920020C9F701C01D92415050400E
:10114000E0F70895A8E1B0E042E050E00C94C20856
:10115000262FF999FECF92BD81BDF89A019700B470
:10116000021639F01FBA20BD0FB6F894FA9AF99A10
:101170000FBE08950196272F0E94A9080C94A80875
:10118000DC01CB01FC01F999FECF06C0F2BDE1BD47
:10119000F89A319600B40D9241505040B8F7089536
:0411A000F894FFCFF1
:1011A4003F065B4F666D7D077F6FBF86DBCFE6ED45
:0411B400FD87FFEFC5
:00000001FF
